{
  "contractName": "boletosNFT",
  "abi": [
    {
      "inputs": [
        {
          "internalType": "address",
          "name": "_propietario",
          "type": "address"
        },
        {
          "internalType": "address",
          "name": "_contratoPadre",
          "type": "address"
        },
        {
          "internalType": "address",
          "name": "_contratoNFT",
          "type": "address"
        }
      ],
      "stateMutability": "nonpayable",
      "type": "constructor"
    },
    {
      "inputs": [],
      "name": "propietario",
      "outputs": [
        {
          "internalType": "address",
          "name": "direccionPropietario",
          "type": "address"
        },
        {
          "internalType": "address",
          "name": "contratoPadre",
          "type": "address"
        },
        {
          "internalType": "address",
          "name": "contratoNFT",
          "type": "address"
        },
        {
          "internalType": "address",
          "name": "contratoUsuario",
          "type": "address"
        }
      ],
      "stateMutability": "view",
      "type": "function"
    },
    {
      "inputs": [
        {
          "internalType": "address",
          "name": "_propietario",
          "type": "address"
        },
        {
          "internalType": "uint256",
          "name": "_boleto",
          "type": "uint256"
        }
      ],
      "name": "mintBoleto",
      "outputs": [],
      "stateMutability": "nonpayable",
      "type": "function"
    }
  ],
  "bytecode": "0x608060405234801561001057600080fd5b506040516105cd3803806105cd833981810160405281019061003291906101e8565b60405180608001604052808473ffffffffffffffffffffffffffffffffffffffff1681526020018373ffffffffffffffffffffffffffffffffffffffff1681526020018273ffffffffffffffffffffffffffffffffffffffff1681526020013073ffffffffffffffffffffffffffffffffffffffff168152506000808201518160000160006101000a81548173ffffffffffffffffffffffffffffffffffffffff021916908373ffffffffffffffffffffffffffffffffffffffff16021790555060208201518160010160006101000a81548173ffffffffffffffffffffffffffffffffffffffff021916908373ffffffffffffffffffffffffffffffffffffffff16021790555060408201518160020160006101000a81548173ffffffffffffffffffffffffffffffffffffffff021916908373ffffffffffffffffffffffffffffffffffffffff16021790555060608201518160030160006101000a81548173ffffffffffffffffffffffffffffffffffffffff021916908373ffffffffffffffffffffffffffffffffffffffff160217905550905050505050610280565b6000815190506101e281610269565b92915050565b6000806000606084860312156101fd57600080fd5b600061020b868287016101d3565b935050602061021c868287016101d3565b925050604061022d868287016101d3565b9150509250925092565b600061024282610249565b9050919050565b600073ffffffffffffffffffffffffffffffffffffffff82169050919050565b61027281610237565b811461027d57600080fd5b50565b61033e8061028f6000396000f3fe608060405234801561001057600080fd5b50600436106100365760003560e01c8063120e85231461003b5780633c4f81cd14610057575b600080fd5b610055600480360381019061005091906101d6565b610078565b005b61005f61010e565b60405161006f9493929190610230565b60405180910390f35b600060020160009054906101000a900473ffffffffffffffffffffffffffffffffffffffff1673ffffffffffffffffffffffffffffffffffffffff1663a144819483836040518363ffffffff1660e01b81526004016100d8929190610275565b600060405180830381600087803b1580156100f257600080fd5b505af1158015610106573d6000803e3d6000fd5b505050505050565b60008060000160009054906101000a900473ffffffffffffffffffffffffffffffffffffffff16908060010160009054906101000a900473ffffffffffffffffffffffffffffffffffffffff16908060020160009054906101000a900473ffffffffffffffffffffffffffffffffffffffff16908060030160009054906101000a900473ffffffffffffffffffffffffffffffffffffffff16905084565b6000813590506101bb816102da565b92915050565b6000813590506101d0816102f1565b92915050565b600080604083850312156101e957600080fd5b60006101f7858286016101ac565b9250506020610208858286016101c1565b9150509250929050565b61021b8161029e565b82525050565b61022a816102d0565b82525050565b60006080820190506102456000830187610212565b6102526020830186610212565b61025f6040830185610212565b61026c6060830184610212565b95945050505050565b600060408201905061028a6000830185610212565b6102976020830184610221565b9392505050565b60006102a9826102b0565b9050919050565b600073ffffffffffffffffffffffffffffffffffffffff82169050919050565b6000819050919050565b6102e38161029e565b81146102ee57600080fd5b50565b6102fa816102d0565b811461030557600080fd5b5056fea264697066735822122039207b2f1ab3c5c9340008a6a291bfcac245323d5e8efbbd3ce44392dd92a31964736f6c63430008040033",
  "immutableReferences": {},
  "source": "// SPDX-License-Identifier: MIT\npragma solidity ^0.8.4;\n\nimport \"@openzeppelin/contracts/token/ERC721/ERC721.sol\";\nimport \"@openzeppelin/contracts/token/ERC20/ERC20.sol\";\nimport \"@openzeppelin/contracts/utils/Counters.sol\";\nimport \"@openzeppelin/contracts/access/Ownable.sol\";\n\ncontract loteria is ERC20, Ownable {\n    \n    //Gestion de tokens\n\n    //Direccion del contrato NFT del proyecto\n    address public nft;\n    //constructor\n    constructor() ERC20(\"Loteria\",\"GRL\") {\n        _mint(address(this),1000);\n        nft = address(new mainERC721());\n    }\n\n    address public ganador;\n\n    //registro de usuario\n    mapping(address=>address) public usuario_contract;\n\n    function precioTokens(uint256 _numTokens) internal pure returns (uint256){\n        return _numTokens * (1 ether);\n    }\n\n    function balance_tokens(address _direccion) public view returns(uint256){\n        return balanceOf(_direccion);\n    }\n\n    function balance_contract() public view returns(uint256){\n        return balanceOf(address(this));\n    }\n\n    function verEthersSM() public view returns(uint256){\n        return address(this).balance / 10**18;\n    }\n\n    function mintERC20(uint256 _cantidad) public onlyOwner{\n        _mint(address(this), _cantidad);\n    }\n\n    //registro de usuarios \n    function registrar() internal {\n        address addr_personal = address(new boletosNFT(msg.sender,address(this),nft));\n        usuario_contract[msg.sender] = addr_personal;\n    }\n\n    //informacion de un usuario\n    function usersInfo(address _account) public view returns(address){\n        return usuario_contract[_account];\n    }\n\n    //comprar tokens ERC20\n    function compraTokens(uint256 _numTokens) public payable{\n        //registro de usuario\n        if(usuario_contract[msg.sender]==address(0)){\n            registrar();\n        }\n        //establecer el coste de los tokens a comprar\n        uint256 coste = precioTokens(_numTokens);\n        require(msg.value >= coste, \"Compra mas ethers\");\n        //numero de tokens disponibles\n        uint256 balanceSM = balance_contract();\n        require(balanceSM >= _numTokens, \"No hay tantos tokens disponibles, compra menos\");\n        //devolucion dinero sobrante\n        uint256 returnValue = msg.value - coste;\n        //pago\n        payable(msg.sender).transfer(returnValue);\n        //envio de tokens erc20\n        _transfer(address(this),msg.sender,_numTokens);\n    }\n\n    function devolverTokens(uint256 _numTokens) public payable{\n        //Numero de tokens mayor que 0\n        require(_numTokens>0,\"El numero a devolver tiene que ser mayor que 0\");\n        //el usuario tiene que tener los tokens a devolver\n        require(_numTokens <= balance_tokens(msg.sender),\"No tienes tantos tokens\");\n        //transferir tokens al SM\n        _transfer(msg.sender,address(this),_numTokens);\n        //SM envia ethers\n        payable(msg.sender).transfer(precioTokens(_numTokens));\n    }\n\n    //gestion de loteria\n\n    //precio boleto ERC20\n    uint public precioBoleto = 5;\n    //relacion persona-boleto\n    mapping(address => uint[]) idPersona_boletos;\n    //relacion boleto -> ganador\n    mapping(uint => address) adnBoleto;\n    //Numero aleatorio\n    uint rand = 0;\n    //Boletos de la loteria generados\n    uint [] boletosLoteria;\n\n    function compraBoletos(uint256 _numBoletos) public {\n        //precio total de los boletos\n        uint precioTotal = _numBoletos*precioBoleto;\n        //comprobar si el usuario tiene tokens suficientes\n        require(precioTotal <= balance_tokens(msg.sender),\"No tienes suficientes tokens\");\n        //transfer de tokens usuario -> SM\n        _transfer(msg.sender,address(this),precioTotal);\n        for(uint i=0;i<_numBoletos;i++){\n            uint random = uint(keccak256(abi.encodePacked(block.timestamp,msg.sender,rand)))%10000;\n            rand++;\n            boletosLoteria.push(random);\n            idPersona_boletos[msg.sender].push(random);\n            adnBoleto[random] = msg.sender;\n            boletosNFT(usuario_contract[msg.sender]).mintBoleto(msg.sender,random);\n        }\n    }\n\n    function tusBoletos(address _propietario) public view returns(uint [] memory){\n        return idPersona_boletos[_propietario];\n    }\n\n    function generarGanador() public onlyOwner returns(address){\n        //longitud array\n        uint256 longitud = boletosLoteria.length;\n        //Verificacion compra 1 boleto\n        require(longitud > 0,\"No hay boletos comprados\");\n        //eleccion random entre 0 y la longitud\n        uint random = uint(keccak256(abi.encodePacked(block.timestamp)))%longitud;\n        //seleccion num random\n        uint eleccion = boletosLoteria[random];\n        //eleccion ganador \n        ganador = adnBoleto[eleccion];\n        //envio 95% del bote\n        payable(ganador).transfer(address(this).balance*95/100);\n        //envio del 5% al owner\n        payable(msg.sender).transfer(address(this).balance*5/100);\n        return ganador;\n    }\n}\n\ncontract mainERC721 is ERC721 {\n    address public direccionLoteria;\n    constructor() ERC721(\"Loteria\",\"TCK\"){\n        direccionLoteria = msg.sender;\n    }\n\n    //creacion de nft\n    function safeMint(address _propietario, uint256 _boleto) public {\n        require(msg.sender == loteria(direccionLoteria).usersInfo(_propietario),\"No tienes permisos\");\n        _safeMint(_propietario, _boleto);\n    }\n\n\n}\n\ncontract boletosNFT {\n    //datos del propietario\n    struct Owner {\n        address direccionPropietario;\n        address contratoPadre;\n        address contratoNFT;\n        address contratoUsuario;\n    }\n\n    Owner public propietario;\n\n    //constructor sm hijo\n    constructor(address _propietario,address _contratoPadre,address _contratoNFT){\n        propietario = Owner(_propietario,_contratoPadre,_contratoNFT, address(this));\n    }\n\n    //conversion boletos loteria\n    function mintBoleto(address _propietario, uint _boleto) public {\n        mainERC721(propietario.contratoNFT).safeMint(_propietario,_boleto);\n    }\n}",
  "sourcePath": "/Users/alvaro/Desktop/programacion/Web3/Github/LoteriaDapp/src/contracts/loteria.sol",
  "compiler": {
    "name": "solc",
    "version": "0.8.4+commit.c7e474f2.Emscripten.clang"
  },
  "schemaVersion": "3.4.6",
  "updatedAt": "2022-12-09T15:02:48.946Z",
  "devdoc": {
    "kind": "dev",
    "methods": {},
    "version": 1
  },
  "userdoc": {
    "kind": "user",
    "methods": {},
    "version": 1
  }
}