{
  "contractName": "loteria",
  "abi": [
    {
      "inputs": [],
      "stateMutability": "nonpayable",
      "type": "constructor"
    },
    {
      "anonymous": false,
      "inputs": [
        {
          "indexed": true,
          "internalType": "address",
          "name": "owner",
          "type": "address"
        },
        {
          "indexed": true,
          "internalType": "address",
          "name": "spender",
          "type": "address"
        },
        {
          "indexed": false,
          "internalType": "uint256",
          "name": "value",
          "type": "uint256"
        }
      ],
      "name": "Approval",
      "type": "event"
    },
    {
      "anonymous": false,
      "inputs": [
        {
          "indexed": true,
          "internalType": "address",
          "name": "previousOwner",
          "type": "address"
        },
        {
          "indexed": true,
          "internalType": "address",
          "name": "newOwner",
          "type": "address"
        }
      ],
      "name": "OwnershipTransferred",
      "type": "event"
    },
    {
      "anonymous": false,
      "inputs": [
        {
          "indexed": true,
          "internalType": "address",
          "name": "from",
          "type": "address"
        },
        {
          "indexed": true,
          "internalType": "address",
          "name": "to",
          "type": "address"
        },
        {
          "indexed": false,
          "internalType": "uint256",
          "name": "value",
          "type": "uint256"
        }
      ],
      "name": "Transfer",
      "type": "event"
    },
    {
      "inputs": [
        {
          "internalType": "address",
          "name": "owner",
          "type": "address"
        },
        {
          "internalType": "address",
          "name": "spender",
          "type": "address"
        }
      ],
      "name": "allowance",
      "outputs": [
        {
          "internalType": "uint256",
          "name": "",
          "type": "uint256"
        }
      ],
      "stateMutability": "view",
      "type": "function",
      "constant": true
    },
    {
      "inputs": [
        {
          "internalType": "address",
          "name": "spender",
          "type": "address"
        },
        {
          "internalType": "uint256",
          "name": "amount",
          "type": "uint256"
        }
      ],
      "name": "approve",
      "outputs": [
        {
          "internalType": "bool",
          "name": "",
          "type": "bool"
        }
      ],
      "stateMutability": "nonpayable",
      "type": "function"
    },
    {
      "inputs": [
        {
          "internalType": "address",
          "name": "account",
          "type": "address"
        }
      ],
      "name": "balanceOf",
      "outputs": [
        {
          "internalType": "uint256",
          "name": "",
          "type": "uint256"
        }
      ],
      "stateMutability": "view",
      "type": "function",
      "constant": true
    },
    {
      "inputs": [],
      "name": "decimals",
      "outputs": [
        {
          "internalType": "uint8",
          "name": "",
          "type": "uint8"
        }
      ],
      "stateMutability": "view",
      "type": "function",
      "constant": true
    },
    {
      "inputs": [
        {
          "internalType": "address",
          "name": "spender",
          "type": "address"
        },
        {
          "internalType": "uint256",
          "name": "subtractedValue",
          "type": "uint256"
        }
      ],
      "name": "decreaseAllowance",
      "outputs": [
        {
          "internalType": "bool",
          "name": "",
          "type": "bool"
        }
      ],
      "stateMutability": "nonpayable",
      "type": "function"
    },
    {
      "inputs": [],
      "name": "ganador",
      "outputs": [
        {
          "internalType": "address",
          "name": "",
          "type": "address"
        }
      ],
      "stateMutability": "view",
      "type": "function",
      "constant": true
    },
    {
      "inputs": [
        {
          "internalType": "address",
          "name": "spender",
          "type": "address"
        },
        {
          "internalType": "uint256",
          "name": "addedValue",
          "type": "uint256"
        }
      ],
      "name": "increaseAllowance",
      "outputs": [
        {
          "internalType": "bool",
          "name": "",
          "type": "bool"
        }
      ],
      "stateMutability": "nonpayable",
      "type": "function"
    },
    {
      "inputs": [],
      "name": "name",
      "outputs": [
        {
          "internalType": "string",
          "name": "",
          "type": "string"
        }
      ],
      "stateMutability": "view",
      "type": "function",
      "constant": true
    },
    {
      "inputs": [],
      "name": "nft",
      "outputs": [
        {
          "internalType": "address",
          "name": "",
          "type": "address"
        }
      ],
      "stateMutability": "view",
      "type": "function",
      "constant": true
    },
    {
      "inputs": [],
      "name": "owner",
      "outputs": [
        {
          "internalType": "address",
          "name": "",
          "type": "address"
        }
      ],
      "stateMutability": "view",
      "type": "function",
      "constant": true
    },
    {
      "inputs": [],
      "name": "precioBoleto",
      "outputs": [
        {
          "internalType": "uint256",
          "name": "",
          "type": "uint256"
        }
      ],
      "stateMutability": "view",
      "type": "function",
      "constant": true
    },
    {
      "inputs": [],
      "name": "renounceOwnership",
      "outputs": [],
      "stateMutability": "nonpayable",
      "type": "function"
    },
    {
      "inputs": [],
      "name": "symbol",
      "outputs": [
        {
          "internalType": "string",
          "name": "",
          "type": "string"
        }
      ],
      "stateMutability": "view",
      "type": "function",
      "constant": true
    },
    {
      "inputs": [],
      "name": "totalSupply",
      "outputs": [
        {
          "internalType": "uint256",
          "name": "",
          "type": "uint256"
        }
      ],
      "stateMutability": "view",
      "type": "function",
      "constant": true
    },
    {
      "inputs": [
        {
          "internalType": "address",
          "name": "to",
          "type": "address"
        },
        {
          "internalType": "uint256",
          "name": "amount",
          "type": "uint256"
        }
      ],
      "name": "transfer",
      "outputs": [
        {
          "internalType": "bool",
          "name": "",
          "type": "bool"
        }
      ],
      "stateMutability": "nonpayable",
      "type": "function"
    },
    {
      "inputs": [
        {
          "internalType": "address",
          "name": "from",
          "type": "address"
        },
        {
          "internalType": "address",
          "name": "to",
          "type": "address"
        },
        {
          "internalType": "uint256",
          "name": "amount",
          "type": "uint256"
        }
      ],
      "name": "transferFrom",
      "outputs": [
        {
          "internalType": "bool",
          "name": "",
          "type": "bool"
        }
      ],
      "stateMutability": "nonpayable",
      "type": "function"
    },
    {
      "inputs": [
        {
          "internalType": "address",
          "name": "newOwner",
          "type": "address"
        }
      ],
      "name": "transferOwnership",
      "outputs": [],
      "stateMutability": "nonpayable",
      "type": "function"
    },
    {
      "inputs": [
        {
          "internalType": "address",
          "name": "",
          "type": "address"
        }
      ],
      "name": "usuario_contract",
      "outputs": [
        {
          "internalType": "address",
          "name": "",
          "type": "address"
        }
      ],
      "stateMutability": "view",
      "type": "function",
      "constant": true
    },
    {
      "inputs": [
        {
          "internalType": "address",
          "name": "_direccion",
          "type": "address"
        }
      ],
      "name": "balance_tokens",
      "outputs": [
        {
          "internalType": "uint256",
          "name": "",
          "type": "uint256"
        }
      ],
      "stateMutability": "view",
      "type": "function",
      "constant": true
    },
    {
      "inputs": [],
      "name": "balance_contract",
      "outputs": [
        {
          "internalType": "uint256",
          "name": "",
          "type": "uint256"
        }
      ],
      "stateMutability": "view",
      "type": "function",
      "constant": true
    },
    {
      "inputs": [],
      "name": "verEthersSM",
      "outputs": [
        {
          "internalType": "uint256",
          "name": "",
          "type": "uint256"
        }
      ],
      "stateMutability": "view",
      "type": "function",
      "constant": true
    },
    {
      "inputs": [
        {
          "internalType": "uint256",
          "name": "_cantidad",
          "type": "uint256"
        }
      ],
      "name": "mintERC20",
      "outputs": [],
      "stateMutability": "nonpayable",
      "type": "function"
    },
    {
      "inputs": [
        {
          "internalType": "address",
          "name": "_account",
          "type": "address"
        }
      ],
      "name": "usersInfo",
      "outputs": [
        {
          "internalType": "address",
          "name": "",
          "type": "address"
        }
      ],
      "stateMutability": "view",
      "type": "function",
      "constant": true
    },
    {
      "inputs": [
        {
          "internalType": "uint256",
          "name": "_numTokens",
          "type": "uint256"
        }
      ],
      "name": "compraTokens",
      "outputs": [],
      "stateMutability": "payable",
      "type": "function",
      "payable": true
    },
    {
      "inputs": [
        {
          "internalType": "uint256",
          "name": "_numTokens",
          "type": "uint256"
        }
      ],
      "name": "devolverTokens",
      "outputs": [],
      "stateMutability": "payable",
      "type": "function",
      "payable": true
    },
    {
      "inputs": [
        {
          "internalType": "uint256",
          "name": "_numBoletos",
          "type": "uint256"
        }
      ],
      "name": "compraBoletos",
      "outputs": [],
      "stateMutability": "nonpayable",
      "type": "function"
    },
    {
      "inputs": [
        {
          "internalType": "address",
          "name": "_propietario",
          "type": "address"
        }
      ],
      "name": "tusBoletos",
      "outputs": [
        {
          "internalType": "uint256[]",
          "name": "",
          "type": "uint256[]"
        }
      ],
      "stateMutability": "view",
      "type": "function",
      "constant": true
    },
    {
      "inputs": [],
      "name": "generarGanador",
      "outputs": [
        {
          "internalType": "address",
          "name": "",
          "type": "address"
        }
      ],
      "stateMutability": "nonpayable",
      "type": "function"
    }
  ],
  "bytecode": "0x608060405260056009556000600c553480156200001b57600080fd5b506040518060400160405280600781526020017f4c6f7465726961000000000000000000000000000000000000000000000000008152506040518060400160405280600381526020017f47524c00000000000000000000000000000000000000000000000000000000008152508160039080519060200190620000a0929190620003b3565b508060049080519060200190620000b9929190620003b3565b505050620000dc620000d06200016260201b60201c565b6200016a60201b60201c565b620000f0306103e86200023060201b60201c565b604051620000fe9062000444565b604051809103906000f0801580156200011b573d6000803e3d6000fd5b50600660006101000a81548173ffffffffffffffffffffffffffffffffffffffff021916908373ffffffffffffffffffffffffffffffffffffffff1602179055506200061d565b600033905090565b6000600560009054906101000a900473ffffffffffffffffffffffffffffffffffffffff16905081600560006101000a81548173ffffffffffffffffffffffffffffffffffffffff021916908373ffffffffffffffffffffffffffffffffffffffff1602179055508173ffffffffffffffffffffffffffffffffffffffff168173ffffffffffffffffffffffffffffffffffffffff167f8be0079c531659141344cd1fd0a4f28419497f9722a3daafe3b4186f6b6457e060405160405180910390a35050565b600073ffffffffffffffffffffffffffffffffffffffff168273ffffffffffffffffffffffffffffffffffffffff161415620002a3576040517f08c379a00000000000000000000000000000000000000000000000000000000081526004016200029a90620004a9565b60405180910390fd5b620002b760008383620003a960201b60201c565b8060026000828254620002cb9190620004f9565b92505081905550806000808473ffffffffffffffffffffffffffffffffffffffff1673ffffffffffffffffffffffffffffffffffffffff1681526020019081526020016000206000828254620003229190620004f9565b925050819055508173ffffffffffffffffffffffffffffffffffffffff16600073ffffffffffffffffffffffffffffffffffffffff167fddf252ad1be2c89b69c2b068fc378daa952ba7f163c4a11628f55a4df523b3ef83604051620003899190620004cb565b60405180910390a3620003a560008383620003ae60201b60201c565b5050565b505050565b505050565b828054620003c19062000560565b90600052602060002090601f016020900481019282620003e5576000855562000431565b82601f106200040057805160ff191683800117855562000431565b8280016001018555821562000431579182015b828111156200043057825182559160200191906001019062000413565b5b50905062000440919062000452565b5090565b612b668062003d6183390190565b5b808211156200046d57600081600090555060010162000453565b5090565b600062000480601f83620004e8565b91506200048d82620005f4565b602082019050919050565b620004a38162000556565b82525050565b60006020820190508181036000830152620004c48162000471565b9050919050565b6000602082019050620004e2600083018462000498565b92915050565b600082825260208201905092915050565b6000620005068262000556565b9150620005138362000556565b9250827fffffffffffffffffffffffffffffffffffffffffffffffffffffffffffffffff038211156200054b576200054a62000596565b5b828201905092915050565b6000819050919050565b600060028204905060018216806200057957607f821691505b6020821081141562000590576200058f620005c5565b5b50919050565b7f4e487b7100000000000000000000000000000000000000000000000000000000600052601160045260246000fd5b7f4e487b7100000000000000000000000000000000000000000000000000000000600052602260045260246000fd5b7f45524332303a206d696e7420746f20746865207a65726f206164647265737300600082015250565b613734806200062d6000396000f3fe608060405260043610620001e25760003560e01c806389e25c281162000103578063bad951371162000097578063dd62ed3e116200006d578063dd62ed3e14620006f5578063e83932f21462000739578063ee5ade831462000769578063f2fde38b146200079957620001e2565b8063bad951371462000663578063c29dd7c91462000691578063c9f9046a14620006b157620001e2565b8063912cf30411620000d9578063912cf304146200056757806395d89b4114620005ab578063a457c2d714620005db578063a9059cbb146200061f57620001e2565b806389e25c2814620004d75780638da5cb5b14620005075780639114bde8146200053757620001e2565b8063313ce567116200017b57806347ccca02116200015157806347ccca0214620004055780635d0eaaaf146200043557806370a082311462000479578063715018a614620004bd57620001e2565b8063313ce567146200036357806335dcc4a414620003935780633950935114620003c157620001e2565b80632175a63c11620001bd5780632175a63c146200028b57806323acfa8114620002bb57806323b872dd14620002ff5780632e95161c146200034357620001e2565b806306fdde0314620001e7578063095ea7b3146200021757806318160ddd146200025b575b600080fd5b348015620001f457600080fd5b50620001ff620007c7565b6040516200020e9190620026ed565b60405180910390f35b3480156200022457600080fd5b506200024360048036038101906200023d919062002198565b62000861565b604051620002529190620026d0565b60405180910390f35b3480156200026857600080fd5b506200027362000888565b60405162000282919062002931565b60405180910390f35b3480156200029857600080fd5b50620002a362000892565b604051620002b2919062002931565b60405180910390f35b348015620002c857600080fd5b50620002e76004803603810190620002e19190620020d5565b620008af565b604051620002f6919062002625565b60405180910390f35b3480156200030c57600080fd5b506200032b600480360381019062000325919062002142565b620008e2565b6040516200033a9190620026d0565b60405180910390f35b6200036160048036038101906200035b9190620021d9565b62000917565b005b3480156200037057600080fd5b506200037b62000a0f565b6040516200038a91906200294e565b60405180910390f35b348015620003a057600080fd5b50620003bf6004803603810190620003b99190620021d9565b62000a18565b005b348015620003ce57600080fd5b50620003ed6004803603810190620003e7919062002198565b62000aaa565b604051620003fc9190620026d0565b60405180910390f35b3480156200041257600080fd5b506200041d62000b5a565b6040516200042c919062002625565b60405180910390f35b3480156200044257600080fd5b506200046160048036038101906200045b9190620020d5565b62000b80565b60405162000470919062002625565b60405180910390f35b3480156200048657600080fd5b50620004a560048036038101906200049f9190620020d5565b62000be9565b604051620004b4919062002931565b60405180910390f35b348015620004ca57600080fd5b50620004d562000c31565b005b348015620004e457600080fd5b50620004ef62000cc2565b604051620004fe919062002625565b60405180910390f35b3480156200051457600080fd5b506200051f62000fa7565b6040516200052e919062002625565b60405180910390f35b3480156200054457600080fd5b506200054f62000fd1565b6040516200055e919062002625565b60405180910390f35b3480156200057457600080fd5b506200059360048036038101906200058d9190620020d5565b62000ff7565b604051620005a29190620026ac565b60405180910390f35b348015620005b857600080fd5b50620005c362001090565b604051620005d29190620026ed565b60405180910390f35b348015620005e857600080fd5b5062000607600480360381019062000601919062002198565b6200112a565b604051620006169190620026d0565b60405180910390f35b3480156200062c57600080fd5b506200064b600480360381019062000645919062002198565b6200121b565b6040516200065a9190620026d0565b60405180910390f35b3480156200067057600080fd5b506200068f6004803603810190620006899190620021d9565b62001242565b005b620006af6004803603810190620006a99190620021d9565b620014eb565b005b348015620006be57600080fd5b50620006dd6004803603810190620006d79190620020d5565b620016a1565b604051620006ec919062002931565b60405180910390f35b3480156200070257600080fd5b506200072160048036038101906200071b919062002101565b620016b5565b60405162000730919062002931565b60405180910390f35b3480156200074657600080fd5b50620007516200173c565b60405162000760919062002931565b60405180910390f35b3480156200077657600080fd5b50620007816200174e565b60405162000790919062002931565b60405180910390f35b348015620007a657600080fd5b50620007c56004803603810190620007bf9190620020d5565b62001754565b005b606060038054620007d89062002b7e565b80601f0160208091040260200160405190810160405280929190818152602001828054620008069062002b7e565b8015620008575780601f106200082b5761010080835404028352916020019162000857565b820191906000526020600020905b8154815290600101906020018083116200083957829003601f168201915b5050505050905090565b6000806200086e62001858565b90506200087d81858562001860565b600191505092915050565b6000600254905090565b6000670de0b6b3a764000047620008aa919062002a1d565b905090565b60086020528060005260406000206000915054906101000a900473ffffffffffffffffffffffffffffffffffffffff1681565b600080620008ef62001858565b9050620008fe85828562001a33565b6200090b85858562001ac7565b60019150509392505050565b600081116200095d576040517f08c379a0000000000000000000000000000000000000000000000000000000008152600401620009549062002711565b60405180910390fd5b6200096833620016a1565b811115620009ad576040517f08c379a0000000000000000000000000000000000000000000000000000000008152600401620009a49062002755565b60405180910390fd5b620009ba33308362001ac7565b3373ffffffffffffffffffffffffffffffffffffffff166108fc620009df8362001d59565b9081150290604051600060405180830381858888f1935050505015801562000a0b573d6000803e3d6000fd5b5050565b60006012905090565b62000a2262001858565b73ffffffffffffffffffffffffffffffffffffffff1662000a4262000fa7565b73ffffffffffffffffffffffffffffffffffffffff161462000a9b576040517f08c379a000000000000000000000000000000000000000000000000000000000815260040162000a929062002865565b60405180910390fd5b62000aa7308262001d78565b50565b60008062000ab762001858565b905062000b4f818585600160008673ffffffffffffffffffffffffffffffffffffffff1673ffffffffffffffffffffffffffffffffffffffff16815260200190815260200160002060008973ffffffffffffffffffffffffffffffffffffffff1673ffffffffffffffffffffffffffffffffffffffff1681526020019081526020016000205462000b499190620029c0565b62001860565b600191505092915050565b600660009054906101000a900473ffffffffffffffffffffffffffffffffffffffff1681565b6000600860008373ffffffffffffffffffffffffffffffffffffffff1673ffffffffffffffffffffffffffffffffffffffff16815260200190815260200160002060009054906101000a900473ffffffffffffffffffffffffffffffffffffffff169050919050565b60008060008373ffffffffffffffffffffffffffffffffffffffff1673ffffffffffffffffffffffffffffffffffffffff168152602001908152602001600020549050919050565b62000c3b62001858565b73ffffffffffffffffffffffffffffffffffffffff1662000c5b62000fa7565b73ffffffffffffffffffffffffffffffffffffffff161462000cb4576040517f08c379a000000000000000000000000000000000000000000000000000000000815260040162000cab9062002865565b60405180910390fd5b62000cc0600062001ee5565b565b600062000cce62001858565b73ffffffffffffffffffffffffffffffffffffffff1662000cee62000fa7565b73ffffffffffffffffffffffffffffffffffffffff161462000d47576040517f08c379a000000000000000000000000000000000000000000000000000000000815260040162000d3e9062002865565b60405180910390fd5b6000600d8054905090506000811162000d97576040517f08c379a000000000000000000000000000000000000000000000000000000000815260040162000d8e90620027ff565b60405180910390fd5b6000814260405160200162000dad9190620025c5565b6040516020818303038152906040528051906020012060001c62000dd2919062002c34565b90506000600d828154811062000e11577f4e487b7100000000000000000000000000000000000000000000000000000000600052603260045260246000fd5b90600052602060002001549050600b600082815260200190815260200160002060009054906101000a900473ffffffffffffffffffffffffffffffffffffffff16600760006101000a81548173ffffffffffffffffffffffffffffffffffffffff021916908373ffffffffffffffffffffffffffffffffffffffff160217905550600760009054906101000a900473ffffffffffffffffffffffffffffffffffffffff1673ffffffffffffffffffffffffffffffffffffffff166108fc6064605f4762000edf919062002a55565b62000eeb919062002a1d565b9081150290604051600060405180830381858888f1935050505015801562000f17573d6000803e3d6000fd5b503373ffffffffffffffffffffffffffffffffffffffff166108fc606460054762000f43919062002a55565b62000f4f919062002a1d565b9081150290604051600060405180830381858888f1935050505015801562000f7b573d6000803e3d6000fd5b50600760009054906101000a900473ffffffffffffffffffffffffffffffffffffffff16935050505090565b6000600560009054906101000a900473ffffffffffffffffffffffffffffffffffffffff16905090565b600760009054906101000a900473ffffffffffffffffffffffffffffffffffffffff1681565b6060600a60008373ffffffffffffffffffffffffffffffffffffffff1673ffffffffffffffffffffffffffffffffffffffff1681526020019081526020016000208054806020026020016040519081016040528092919081815260200182805480156200108457602002820191906000526020600020905b8154815260200190600101908083116200106f575b50505050509050919050565b606060048054620010a19062002b7e565b80601f0160208091040260200160405190810160405280929190818152602001828054620010cf9062002b7e565b8015620011205780601f10620010f45761010080835404028352916020019162001120565b820191906000526020600020905b8154815290600101906020018083116200110257829003601f168201915b5050505050905090565b6000806200113762001858565b90506000600160008373ffffffffffffffffffffffffffffffffffffffff1673ffffffffffffffffffffffffffffffffffffffff16815260200190815260200160002060008673ffffffffffffffffffffffffffffffffffffffff1673ffffffffffffffffffffffffffffffffffffffff1681526020019081526020016000205490508381101562001200576040517f08c379a0000000000000000000000000000000000000000000000000000000008152600401620011f790620028ed565b60405180910390fd5b6200120f828686840362001860565b60019250505092915050565b6000806200122862001858565b90506200123781858562001ac7565b600191505092915050565b60006009548262001254919062002a55565b90506200126133620016a1565b811115620012a6576040517f08c379a00000000000000000000000000000000000000000000000000000000081526004016200129d9062002887565b60405180910390fd5b620012b333308362001ac7565b60005b82811015620014e65760006127104233600c54604051602001620012dd93929190620025e2565b6040516020818303038152906040528051906020012060001c62001302919062002c34565b9050600c6000815480929190620013199062002bb4565b9190505550600d819080600181540180825580915050600190039060005260206000200160009091909190915055600a60003373ffffffffffffffffffffffffffffffffffffffff1673ffffffffffffffffffffffffffffffffffffffff16815260200190815260200160002081908060018154018082558091505060019003906000526020600020016000909190919091505533600b600083815260200190815260200160002060006101000a81548173ffffffffffffffffffffffffffffffffffffffff021916908373ffffffffffffffffffffffffffffffffffffffff160217905550600860003373ffffffffffffffffffffffffffffffffffffffff1673ffffffffffffffffffffffffffffffffffffffff16815260200190815260200160002060009054906101000a900473ffffffffffffffffffffffffffffffffffffffff1673ffffffffffffffffffffffffffffffffffffffff1663120e852333836040518363ffffffff1660e01b81526004016200149b9291906200267f565b600060405180830381600087803b158015620014b657600080fd5b505af1158015620014cb573d6000803e3d6000fd5b50505050508080620014dd9062002bb4565b915050620012b6565b505050565b600073ffffffffffffffffffffffffffffffffffffffff16600860003373ffffffffffffffffffffffffffffffffffffffff1673ffffffffffffffffffffffffffffffffffffffff16815260200190815260200160002060009054906101000a900473ffffffffffffffffffffffffffffffffffffffff1673ffffffffffffffffffffffffffffffffffffffff1614156200158b576200158a62001fab565b5b6000620015988262001d59565b905080341015620015e0576040517f08c379a0000000000000000000000000000000000000000000000000000000008152600401620015d79062002821565b60405180910390fd5b6000620015ec6200173c565b90508281101562001634576040517f08c379a00000000000000000000000000000000000000000000000000000000081526004016200162b9062002843565b60405180910390fd5b6000823462001644919062002ab6565b90503373ffffffffffffffffffffffffffffffffffffffff166108fc829081150290604051600060405180830381858888f193505050501580156200168d573d6000803e3d6000fd5b506200169b30338662001ac7565b50505050565b6000620016ae8262000be9565b9050919050565b6000600160008473ffffffffffffffffffffffffffffffffffffffff1673ffffffffffffffffffffffffffffffffffffffff16815260200190815260200160002060008373ffffffffffffffffffffffffffffffffffffffff1673ffffffffffffffffffffffffffffffffffffffff16815260200190815260200160002054905092915050565b6000620017493062000be9565b905090565b60095481565b6200175e62001858565b73ffffffffffffffffffffffffffffffffffffffff166200177e62000fa7565b73ffffffffffffffffffffffffffffffffffffffff1614620017d7576040517f08c379a0000000000000000000000000000000000000000000000000000000008152600401620017ce9062002865565b60405180910390fd5b600073ffffffffffffffffffffffffffffffffffffffff168173ffffffffffffffffffffffffffffffffffffffff1614156200184a576040517f08c379a0000000000000000000000000000000000000000000000000000000008152600401620018419062002777565b60405180910390fd5b620018558162001ee5565b50565b600033905090565b600073ffffffffffffffffffffffffffffffffffffffff168373ffffffffffffffffffffffffffffffffffffffff161415620018d3576040517f08c379a0000000000000000000000000000000000000000000000000000000008152600401620018ca90620028cb565b60405180910390fd5b600073ffffffffffffffffffffffffffffffffffffffff168273ffffffffffffffffffffffffffffffffffffffff16141562001946576040517f08c379a00000000000000000000000000000000000000000000000000000000081526004016200193d9062002799565b60405180910390fd5b80600160008573ffffffffffffffffffffffffffffffffffffffff1673ffffffffffffffffffffffffffffffffffffffff16815260200190815260200160002060008473ffffffffffffffffffffffffffffffffffffffff1673ffffffffffffffffffffffffffffffffffffffff168152602001908152602001600020819055508173ffffffffffffffffffffffffffffffffffffffff168373ffffffffffffffffffffffffffffffffffffffff167f8c5be1e5ebec7d5bd14f71427d1e84f3dd0314c0f7b2291e5b200ac8c7c3b9258360405162001a26919062002931565b60405180910390a3505050565b600062001a418484620016b5565b90507fffffffffffffffffffffffffffffffffffffffffffffffffffffffffffffffff811462001ac1578181101562001ab1576040517f08c379a000000000000000000000000000000000000000000000000000000000815260040162001aa890620027bb565b60405180910390fd5b62001ac0848484840362001860565b5b50505050565b600073ffffffffffffffffffffffffffffffffffffffff168373ffffffffffffffffffffffffffffffffffffffff16141562001b3a576040517f08c379a000000000000000000000000000000000000000000000000000000000815260040162001b3190620028a9565b60405180910390fd5b600073ffffffffffffffffffffffffffffffffffffffff168273ffffffffffffffffffffffffffffffffffffffff16141562001bad576040517f08c379a000000000000000000000000000000000000000000000000000000000815260040162001ba49062002733565b60405180910390fd5b62001bba8383836200208f565b60008060008573ffffffffffffffffffffffffffffffffffffffff1673ffffffffffffffffffffffffffffffffffffffff1681526020019081526020016000205490508181101562001c43576040517f08c379a000000000000000000000000000000000000000000000000000000000815260040162001c3a90620027dd565b60405180910390fd5b8181036000808673ffffffffffffffffffffffffffffffffffffffff1673ffffffffffffffffffffffffffffffffffffffff16815260200190815260200160002081905550816000808573ffffffffffffffffffffffffffffffffffffffff1673ffffffffffffffffffffffffffffffffffffffff168152602001908152602001600020600082825462001cd89190620029c0565b925050819055508273ffffffffffffffffffffffffffffffffffffffff168473ffffffffffffffffffffffffffffffffffffffff167fddf252ad1be2c89b69c2b068fc378daa952ba7f163c4a11628f55a4df523b3ef8460405162001d3e919062002931565b60405180910390a362001d5384848462002094565b50505050565b6000670de0b6b3a76400008262001d71919062002a55565b9050919050565b600073ffffffffffffffffffffffffffffffffffffffff168273ffffffffffffffffffffffffffffffffffffffff16141562001deb576040517f08c379a000000000000000000000000000000000000000000000000000000000815260040162001de2906200290f565b60405180910390fd5b62001df9600083836200208f565b806002600082825462001e0d9190620029c0565b92505081905550806000808473ffffffffffffffffffffffffffffffffffffffff1673ffffffffffffffffffffffffffffffffffffffff168152602001908152602001600020600082825462001e649190620029c0565b925050819055508173ffffffffffffffffffffffffffffffffffffffff16600073ffffffffffffffffffffffffffffffffffffffff167fddf252ad1be2c89b69c2b068fc378daa952ba7f163c4a11628f55a4df523b3ef8360405162001ecb919062002931565b60405180910390a362001ee16000838362002094565b5050565b6000600560009054906101000a900473ffffffffffffffffffffffffffffffffffffffff16905081600560006101000a81548173ffffffffffffffffffffffffffffffffffffffff021916908373ffffffffffffffffffffffffffffffffffffffff1602179055508173ffffffffffffffffffffffffffffffffffffffff168173ffffffffffffffffffffffffffffffffffffffff167f8be0079c531659141344cd1fd0a4f28419497f9722a3daafe3b4186f6b6457e060405160405180910390a35050565b60003330600660009054906101000a900473ffffffffffffffffffffffffffffffffffffffff1660405162001fe09062002099565b62001fee9392919062002642565b604051809103906000f0801580156200200b573d6000803e3d6000fd5b50905080600860003373ffffffffffffffffffffffffffffffffffffffff1673ffffffffffffffffffffffffffffffffffffffff16815260200190815260200160002060006101000a81548173ffffffffffffffffffffffffffffffffffffffff021916908373ffffffffffffffffffffffffffffffffffffffff16021790555050565b505050565b505050565b6105cd806200313283390190565b600081359050620020b881620030fd565b92915050565b600081359050620020cf8162003117565b92915050565b600060208284031215620020e857600080fd5b6000620020f884828501620020a7565b91505092915050565b600080604083850312156200211557600080fd5b60006200212585828601620020a7565b92505060206200213885828601620020a7565b9150509250929050565b6000806000606084860312156200215857600080fd5b60006200216886828701620020a7565b93505060206200217b86828701620020a7565b92505060406200218e86828701620020be565b9150509250925092565b60008060408385031215620021ac57600080fd5b6000620021bc85828601620020a7565b9250506020620021cf85828601620020be565b9150509250929050565b600060208284031215620021ec57600080fd5b6000620021fc84828501620020be565b91505092915050565b600062002213838362002577565b60208301905092915050565b6200222a8162002af1565b82525050565b620022456200223f8262002af1565b62002c02565b82525050565b600062002258826200297b565b6200226481856200299e565b935062002271836200296b565b8060005b83811015620022a85781516200228c888262002205565b9750620022998362002991565b92505060018101905062002275565b5085935050505092915050565b620022c08162002b05565b82525050565b6000620022d38262002986565b620022df8185620029af565b9350620022f181856020860162002b48565b620022fc8162002cf9565b840191505092915050565b600062002316602e83620029af565b9150620023238262002d17565b604082019050919050565b60006200233d602383620029af565b91506200234a8262002d66565b604082019050919050565b600062002364601783620029af565b9150620023718262002db5565b602082019050919050565b60006200238b602683620029af565b9150620023988262002dde565b604082019050919050565b6000620023b2602283620029af565b9150620023bf8262002e2d565b604082019050919050565b6000620023d9601d83620029af565b9150620023e68262002e7c565b602082019050919050565b600062002400602683620029af565b91506200240d8262002ea5565b604082019050919050565b600062002427601883620029af565b9150620024348262002ef4565b602082019050919050565b60006200244e601183620029af565b91506200245b8262002f1d565b602082019050919050565b600062002475602e83620029af565b9150620024828262002f46565b604082019050919050565b60006200249c602083620029af565b9150620024a98262002f95565b602082019050919050565b6000620024c3601c83620029af565b9150620024d08262002fbe565b602082019050919050565b6000620024ea602583620029af565b9150620024f78262002fe7565b604082019050919050565b600062002511602483620029af565b91506200251e8262003036565b604082019050919050565b600062002538602583620029af565b9150620025458262003085565b604082019050919050565b60006200255f601f83620029af565b91506200256c82620030d4565b602082019050919050565b620025828162002b31565b82525050565b620025938162002b31565b82525050565b620025ae620025a88262002b31565b62002c2a565b82525050565b620025bf8162002b3b565b82525050565b6000620025d3828462002599565b60208201915081905092915050565b6000620025f0828662002599565b60208201915062002602828562002230565b60148201915062002614828462002599565b602082019150819050949350505050565b60006020820190506200263c60008301846200221f565b92915050565b60006060820190506200265960008301866200221f565b6200266860208301856200221f565b6200267760408301846200221f565b949350505050565b60006040820190506200269660008301856200221f565b620026a5602083018462002588565b9392505050565b60006020820190508181036000830152620026c881846200224b565b905092915050565b6000602082019050620026e76000830184620022b5565b92915050565b60006020820190508181036000830152620027098184620022c6565b905092915050565b600060208201905081810360008301526200272c8162002307565b9050919050565b600060208201905081810360008301526200274e816200232e565b9050919050565b60006020820190508181036000830152620027708162002355565b9050919050565b6000602082019050818103600083015262002792816200237c565b9050919050565b60006020820190508181036000830152620027b481620023a3565b9050919050565b60006020820190508181036000830152620027d681620023ca565b9050919050565b60006020820190508181036000830152620027f881620023f1565b9050919050565b600060208201905081810360008301526200281a8162002418565b9050919050565b600060208201905081810360008301526200283c816200243f565b9050919050565b600060208201905081810360008301526200285e8162002466565b9050919050565b6000602082019050818103600083015262002880816200248d565b9050919050565b60006020820190508181036000830152620028a281620024b4565b9050919050565b60006020820190508181036000830152620028c481620024db565b9050919050565b60006020820190508181036000830152620028e68162002502565b9050919050565b60006020820190508181036000830152620029088162002529565b9050919050565b600060208201905081810360008301526200292a8162002550565b9050919050565b600060208201905062002948600083018462002588565b92915050565b6000602082019050620029656000830184620025b4565b92915050565b6000819050602082019050919050565b600081519050919050565b600081519050919050565b6000602082019050919050565b600082825260208201905092915050565b600082825260208201905092915050565b6000620029cd8262002b31565b9150620029da8362002b31565b9250827fffffffffffffffffffffffffffffffffffffffffffffffffffffffffffffffff0382111562002a125762002a1162002c6c565b5b828201905092915050565b600062002a2a8262002b31565b915062002a378362002b31565b92508262002a4a5762002a4962002c9b565b5b828204905092915050565b600062002a628262002b31565b915062002a6f8362002b31565b9250817fffffffffffffffffffffffffffffffffffffffffffffffffffffffffffffffff048311821515161562002aab5762002aaa62002c6c565b5b828202905092915050565b600062002ac38262002b31565b915062002ad08362002b31565b92508282101562002ae65762002ae562002c6c565b5b828203905092915050565b600062002afe8262002b11565b9050919050565b60008115159050919050565b600073ffffffffffffffffffffffffffffffffffffffff82169050919050565b6000819050919050565b600060ff82169050919050565b60005b8381101562002b6857808201518184015260208101905062002b4b565b8381111562002b78576000848401525b50505050565b6000600282049050600182168062002b9757607f821691505b6020821081141562002bae5762002bad62002cca565b5b50919050565b600062002bc18262002b31565b91507fffffffffffffffffffffffffffffffffffffffffffffffffffffffffffffffff82141562002bf75762002bf662002c6c565b5b600182019050919050565b600062002c0f8262002c16565b9050919050565b600062002c238262002d0a565b9050919050565b6000819050919050565b600062002c418262002b31565b915062002c4e8362002b31565b92508262002c615762002c6062002c9b565b5b828206905092915050565b7f4e487b7100000000000000000000000000000000000000000000000000000000600052601160045260246000fd5b7f4e487b7100000000000000000000000000000000000000000000000000000000600052601260045260246000fd5b7f4e487b7100000000000000000000000000000000000000000000000000000000600052602260045260246000fd5b6000601f19601f8301169050919050565b60008160601b9050919050565b7f456c206e756d65726f2061206465766f6c766572207469656e6520717565207360008201527f6572206d61796f72207175652030000000000000000000000000000000000000602082015250565b7f45524332303a207472616e7366657220746f20746865207a65726f206164647260008201527f6573730000000000000000000000000000000000000000000000000000000000602082015250565b7f4e6f207469656e65732074616e746f7320746f6b656e73000000000000000000600082015250565b7f4f776e61626c653a206e6577206f776e657220697320746865207a65726f206160008201527f6464726573730000000000000000000000000000000000000000000000000000602082015250565b7f45524332303a20617070726f766520746f20746865207a65726f20616464726560008201527f7373000000000000000000000000000000000000000000000000000000000000602082015250565b7f45524332303a20696e73756666696369656e7420616c6c6f77616e6365000000600082015250565b7f45524332303a207472616e7366657220616d6f756e742065786365656473206260008201527f616c616e63650000000000000000000000000000000000000000000000000000602082015250565b7f4e6f2068617920626f6c65746f7320636f6d707261646f730000000000000000600082015250565b7f436f6d707261206d617320657468657273000000000000000000000000000000600082015250565b7f4e6f206861792074616e746f7320746f6b656e7320646973706f6e69626c657360008201527f2c20636f6d707261206d656e6f73000000000000000000000000000000000000602082015250565b7f4f776e61626c653a2063616c6c6572206973206e6f7420746865206f776e6572600082015250565b7f4e6f207469656e657320737566696369656e74657320746f6b656e7300000000600082015250565b7f45524332303a207472616e736665722066726f6d20746865207a65726f20616460008201527f6472657373000000000000000000000000000000000000000000000000000000602082015250565b7f45524332303a20617070726f76652066726f6d20746865207a65726f2061646460008201527f7265737300000000000000000000000000000000000000000000000000000000602082015250565b7f45524332303a2064656372656173656420616c6c6f77616e63652062656c6f7760008201527f207a65726f000000000000000000000000000000000000000000000000000000602082015250565b7f45524332303a206d696e7420746f20746865207a65726f206164647265737300600082015250565b620031088162002af1565b81146200311457600080fd5b50565b620031228162002b31565b81146200312e57600080fd5b5056fe608060405234801561001057600080fd5b506040516105cd3803806105cd833981810160405281019061003291906101e8565b60405180608001604052808473ffffffffffffffffffffffffffffffffffffffff1681526020018373ffffffffffffffffffffffffffffffffffffffff1681526020018273ffffffffffffffffffffffffffffffffffffffff1681526020013073ffffffffffffffffffffffffffffffffffffffff168152506000808201518160000160006101000a81548173ffffffffffffffffffffffffffffffffffffffff021916908373ffffffffffffffffffffffffffffffffffffffff16021790555060208201518160010160006101000a81548173ffffffffffffffffffffffffffffffffffffffff021916908373ffffffffffffffffffffffffffffffffffffffff16021790555060408201518160020160006101000a81548173ffffffffffffffffffffffffffffffffffffffff021916908373ffffffffffffffffffffffffffffffffffffffff16021790555060608201518160030160006101000a81548173ffffffffffffffffffffffffffffffffffffffff021916908373ffffffffffffffffffffffffffffffffffffffff160217905550905050505050610280565b6000815190506101e281610269565b92915050565b6000806000606084860312156101fd57600080fd5b600061020b868287016101d3565b935050602061021c868287016101d3565b925050604061022d868287016101d3565b9150509250925092565b600061024282610249565b9050919050565b600073ffffffffffffffffffffffffffffffffffffffff82169050919050565b61027281610237565b811461027d57600080fd5b50565b61033e8061028f6000396000f3fe608060405234801561001057600080fd5b50600436106100365760003560e01c8063120e85231461003b5780633c4f81cd14610057575b600080fd5b610055600480360381019061005091906101d6565b610078565b005b61005f61010e565b60405161006f9493929190610230565b60405180910390f35b600060020160009054906101000a900473ffffffffffffffffffffffffffffffffffffffff1673ffffffffffffffffffffffffffffffffffffffff1663a144819483836040518363ffffffff1660e01b81526004016100d8929190610275565b600060405180830381600087803b1580156100f257600080fd5b505af1158015610106573d6000803e3d6000fd5b505050505050565b60008060000160009054906101000a900473ffffffffffffffffffffffffffffffffffffffff16908060010160009054906101000a900473ffffffffffffffffffffffffffffffffffffffff16908060020160009054906101000a900473ffffffffffffffffffffffffffffffffffffffff16908060030160009054906101000a900473ffffffffffffffffffffffffffffffffffffffff16905084565b6000813590506101bb816102da565b92915050565b6000813590506101d0816102f1565b92915050565b600080604083850312156101e957600080fd5b60006101f7858286016101ac565b9250506020610208858286016101c1565b9150509250929050565b61021b8161029e565b82525050565b61022a816102d0565b82525050565b60006080820190506102456000830187610212565b6102526020830186610212565b61025f6040830185610212565b61026c6060830184610212565b95945050505050565b600060408201905061028a6000830185610212565b6102976020830184610221565b9392505050565b60006102a9826102b0565b9050919050565b600073ffffffffffffffffffffffffffffffffffffffff82169050919050565b6000819050919050565b6102e38161029e565b81146102ee57600080fd5b50565b6102fa816102d0565b811461030557600080fd5b5056fea264697066735822122039207b2f1ab3c5c9340008a6a291bfcac245323d5e8efbbd3ce44392dd92a31964736f6c63430008040033a26469706673582212205d31d5d4c459bbdbab8ed5383ce91979c187f09e5027628104773673a8cfa24364736f6c6343000804003360806040523480156200001157600080fd5b506040518060400160405280600781526020017f4c6f7465726961000000000000000000000000000000000000000000000000008152506040518060400160405280600381526020017f54434b0000000000000000000000000000000000000000000000000000000000815250816000908051906020019062000096929190620000f9565b508060019080519060200190620000af929190620000f9565b50505033600660006101000a81548173ffffffffffffffffffffffffffffffffffffffff021916908373ffffffffffffffffffffffffffffffffffffffff1602179055506200020e565b8280546200010790620001a9565b90600052602060002090601f0160209004810192826200012b576000855562000177565b82601f106200014657805160ff191683800117855562000177565b8280016001018555821562000177579182015b828111156200017657825182559160200191906001019062000159565b5b5090506200018691906200018a565b5090565b5b80821115620001a55760008160009055506001016200018b565b5090565b60006002820490506001821680620001c257607f821691505b60208210811415620001d957620001d8620001df565b5b50919050565b7f4e487b7100000000000000000000000000000000000000000000000000000000600052602260045260246000fd5b612948806200021e6000396000f3fe608060405234801561001057600080fd5b50600436106100f55760003560e01c80636352211e11610097578063a22cb46511610066578063a22cb46514610284578063b88d4fde146102a0578063c87b56dd146102bc578063e985e9c5146102ec576100f5565b80636352211e146101ea57806370a082311461021a57806395d89b411461024a578063a144819414610268576100f5565b8063095ea7b3116100d3578063095ea7b31461017857806323b872dd1461019457806342842e0e146101b05780635aa0c73d146101cc576100f5565b806301ffc9a7146100fa57806306fdde031461012a578063081812fc14610148575b600080fd5b610114600480360381019061010f9190611ade565b61031c565b6040516101219190611ec1565b60405180910390f35b6101326103fe565b60405161013f9190611edc565b60405180910390f35b610162600480360381019061015d9190611b30565b610490565b60405161016f9190611e5a565b60405180910390f35b610192600480360381019061018d9190611aa2565b610515565b005b6101ae60048036038101906101a9919061199c565b61062d565b005b6101ca60048036038101906101c5919061199c565b61068d565b005b6101d46106ad565b6040516101e19190611e5a565b60405180910390f35b61020460048036038101906101ff9190611b30565b6106d3565b6040516102119190611e5a565b60405180910390f35b610234600480360381019061022f919061190e565b610785565b60405161024191906120de565b60405180910390f35b61025261083d565b60405161025f9190611edc565b60405180910390f35b610282600480360381019061027d9190611aa2565b6108cf565b005b61029e60048036038101906102999190611a66565b6109f5565b005b6102ba60048036038101906102b591906119eb565b610a0b565b005b6102d660048036038101906102d19190611b30565b610a6d565b6040516102e39190611edc565b60405180910390f35b61030660048036038101906103019190611960565b610b14565b6040516103139190611ec1565b60405180910390f35b60007f80ac58cd000000000000000000000000000000000000000000000000000000007bffffffffffffffffffffffffffffffffffffffffffffffffffffffff1916827bffffffffffffffffffffffffffffffffffffffffffffffffffffffff191614806103e757507f5b5e139f000000000000000000000000000000000000000000000000000000007bffffffffffffffffffffffffffffffffffffffffffffffffffffffff1916827bffffffffffffffffffffffffffffffffffffffffffffffffffffffff1916145b806103f757506103f682610ba8565b5b9050919050565b60606000805461040d90612303565b80601f016020809104026020016040519081016040528092919081815260200182805461043990612303565b80156104865780601f1061045b57610100808354040283529160200191610486565b820191906000526020600020905b81548152906001019060200180831161046957829003601f168201915b5050505050905090565b600061049b82610c12565b6104da576040517f08c379a00000000000000000000000000000000000000000000000000000000081526004016104d19061203e565b60405180910390fd5b6004600083815260200190815260200160002060009054906101000a900473ffffffffffffffffffffffffffffffffffffffff169050919050565b6000610520826106d3565b90508073ffffffffffffffffffffffffffffffffffffffff168373ffffffffffffffffffffffffffffffffffffffff161415610591576040517f08c379a00000000000000000000000000000000000000000000000000000000081526004016105889061209e565b60405180910390fd5b8073ffffffffffffffffffffffffffffffffffffffff166105b0610c7e565b73ffffffffffffffffffffffffffffffffffffffff1614806105df57506105de816105d9610c7e565b610b14565b5b61061e576040517f08c379a000000000000000000000000000000000000000000000000000000000815260040161061590611fbe565b60405180910390fd5b6106288383610c86565b505050565b61063e610638610c7e565b82610d3f565b61067d576040517f08c379a0000000000000000000000000000000000000000000000000000000008152600401610674906120be565b60405180910390fd5b610688838383610e1d565b505050565b6106a883838360405180602001604052806000815250610a0b565b505050565b600660009054906101000a900473ffffffffffffffffffffffffffffffffffffffff1681565b6000806002600084815260200190815260200160002060009054906101000a900473ffffffffffffffffffffffffffffffffffffffff169050600073ffffffffffffffffffffffffffffffffffffffff168173ffffffffffffffffffffffffffffffffffffffff16141561077c576040517f08c379a000000000000000000000000000000000000000000000000000000000815260040161077390611ffe565b60405180910390fd5b80915050919050565b60008073ffffffffffffffffffffffffffffffffffffffff168273ffffffffffffffffffffffffffffffffffffffff1614156107f6576040517f08c379a00000000000000000000000000000000000000000000000000000000081526004016107ed90611fde565b60405180910390fd5b600360008373ffffffffffffffffffffffffffffffffffffffff1673ffffffffffffffffffffffffffffffffffffffff168152602001908152602001600020549050919050565b60606001805461084c90612303565b80601f016020809104026020016040519081016040528092919081815260200182805461087890612303565b80156108c55780601f1061089a576101008083540402835291602001916108c5565b820191906000526020600020905b8154815290600101906020018083116108a857829003601f168201915b5050505050905090565b600660009054906101000a900473ffffffffffffffffffffffffffffffffffffffff1673ffffffffffffffffffffffffffffffffffffffff16635d0eaaaf836040518263ffffffff1660e01b815260040161092a9190611e5a565b60206040518083038186803b15801561094257600080fd5b505afa158015610956573d6000803e3d6000fd5b505050506040513d601f19601f8201168201806040525081019061097a9190611937565b73ffffffffffffffffffffffffffffffffffffffff163373ffffffffffffffffffffffffffffffffffffffff16146109e7576040517f08c379a00000000000000000000000000000000000000000000000000000000081526004016109de9061205e565b60405180910390fd5b6109f18282611084565b5050565b610a07610a00610c7e565b83836110a2565b5050565b610a1c610a16610c7e565b83610d3f565b610a5b576040517f08c379a0000000000000000000000000000000000000000000000000000000008152600401610a52906120be565b60405180910390fd5b610a678484848461120f565b50505050565b6060610a7882610c12565b610ab7576040517f08c379a0000000000000000000000000000000000000000000000000000000008152600401610aae9061207e565b60405180910390fd5b6000610ac161126b565b90506000815111610ae15760405180602001604052806000815250610b0c565b80610aeb84611282565b604051602001610afc929190611e36565b6040516020818303038152906040525b915050919050565b6000600560008473ffffffffffffffffffffffffffffffffffffffff1673ffffffffffffffffffffffffffffffffffffffff16815260200190815260200160002060008373ffffffffffffffffffffffffffffffffffffffff1673ffffffffffffffffffffffffffffffffffffffff16815260200190815260200160002060009054906101000a900460ff16905092915050565b60007f01ffc9a7000000000000000000000000000000000000000000000000000000007bffffffffffffffffffffffffffffffffffffffffffffffffffffffff1916827bffffffffffffffffffffffffffffffffffffffffffffffffffffffff1916149050919050565b60008073ffffffffffffffffffffffffffffffffffffffff166002600084815260200190815260200160002060009054906101000a900473ffffffffffffffffffffffffffffffffffffffff1673ffffffffffffffffffffffffffffffffffffffff1614159050919050565b600033905090565b816004600083815260200190815260200160002060006101000a81548173ffffffffffffffffffffffffffffffffffffffff021916908373ffffffffffffffffffffffffffffffffffffffff160217905550808273ffffffffffffffffffffffffffffffffffffffff16610cf9836106d3565b73ffffffffffffffffffffffffffffffffffffffff167f8c5be1e5ebec7d5bd14f71427d1e84f3dd0314c0f7b2291e5b200ac8c7c3b92560405160405180910390a45050565b6000610d4a82610c12565b610d89576040517f08c379a0000000000000000000000000000000000000000000000000000000008152600401610d8090611f9e565b60405180910390fd5b6000610d94836106d3565b90508073ffffffffffffffffffffffffffffffffffffffff168473ffffffffffffffffffffffffffffffffffffffff161480610e0357508373ffffffffffffffffffffffffffffffffffffffff16610deb84610490565b73ffffffffffffffffffffffffffffffffffffffff16145b80610e145750610e138185610b14565b5b91505092915050565b8273ffffffffffffffffffffffffffffffffffffffff16610e3d826106d3565b73ffffffffffffffffffffffffffffffffffffffff1614610e93576040517f08c379a0000000000000000000000000000000000000000000000000000000008152600401610e8a90611f1e565b60405180910390fd5b600073ffffffffffffffffffffffffffffffffffffffff168273ffffffffffffffffffffffffffffffffffffffff161415610f03576040517f08c379a0000000000000000000000000000000000000000000000000000000008152600401610efa90611f5e565b60405180910390fd5b610f0e83838361142f565b610f19600082610c86565b6001600360008573ffffffffffffffffffffffffffffffffffffffff1673ffffffffffffffffffffffffffffffffffffffff1681526020019081526020016000206000828254610f699190612219565b925050819055506001600360008473ffffffffffffffffffffffffffffffffffffffff1673ffffffffffffffffffffffffffffffffffffffff1681526020019081526020016000206000828254610fc09190612192565b92505081905550816002600083815260200190815260200160002060006101000a81548173ffffffffffffffffffffffffffffffffffffffff021916908373ffffffffffffffffffffffffffffffffffffffff160217905550808273ffffffffffffffffffffffffffffffffffffffff168473ffffffffffffffffffffffffffffffffffffffff167fddf252ad1be2c89b69c2b068fc378daa952ba7f163c4a11628f55a4df523b3ef60405160405180910390a461107f838383611434565b505050565b61109e828260405180602001604052806000815250611439565b5050565b8173ffffffffffffffffffffffffffffffffffffffff168373ffffffffffffffffffffffffffffffffffffffff161415611111576040517f08c379a000000000000000000000000000000000000000000000000000000000815260040161110890611f7e565b60405180910390fd5b80600560008573ffffffffffffffffffffffffffffffffffffffff1673ffffffffffffffffffffffffffffffffffffffff16815260200190815260200160002060008473ffffffffffffffffffffffffffffffffffffffff1673ffffffffffffffffffffffffffffffffffffffff16815260200190815260200160002060006101000a81548160ff0219169083151502179055508173ffffffffffffffffffffffffffffffffffffffff168373ffffffffffffffffffffffffffffffffffffffff167f17307eab39ab6107e8899845ad3d59bd9653f200f220920489ca2b5937696c31836040516112029190611ec1565b60405180910390a3505050565b61121a848484610e1d565b61122684848484611494565b611265576040517f08c379a000000000000000000000000000000000000000000000000000000000815260040161125c90611efe565b60405180910390fd5b50505050565b606060405180602001604052806000815250905090565b606060008214156112ca576040518060400160405280600181526020017f3000000000000000000000000000000000000000000000000000000000000000815250905061142a565b600082905060005b600082146112fc5780806112e590612366565b915050600a826112f591906121e8565b91506112d2565b60008167ffffffffffffffff81111561133e577f4e487b7100000000000000000000000000000000000000000000000000000000600052604160045260246000fd5b6040519080825280601f01601f1916602001820160405280156113705781602001600182028036833780820191505090505b5090505b60008514611423576001826113899190612219565b9150600a8561139891906123af565b60306113a49190612192565b60f81b8183815181106113e0577f4e487b7100000000000000000000000000000000000000000000000000000000600052603260045260246000fd5b60200101907effffffffffffffffffffffffffffffffffffffffffffffffffffffffffffff1916908160001a905350600a8561141c91906121e8565b9450611374565b8093505050505b919050565b505050565b505050565b611443838361162b565b6114506000848484611494565b61148f576040517f08c379a000000000000000000000000000000000000000000000000000000000815260040161148690611efe565b60405180910390fd5b505050565b60006114b58473ffffffffffffffffffffffffffffffffffffffff16611805565b1561161e578373ffffffffffffffffffffffffffffffffffffffff1663150b7a026114de610c7e565b8786866040518563ffffffff1660e01b81526004016115009493929190611e75565b602060405180830381600087803b15801561151a57600080fd5b505af192505050801561154b57506040513d601f19601f820116820180604052508101906115489190611b07565b60015b6115ce573d806000811461157b576040519150601f19603f3d011682016040523d82523d6000602084013e611580565b606091505b506000815114156115c6576040517f08c379a00000000000000000000000000000000000000000000000000000000081526004016115bd90611efe565b60405180910390fd5b805181602001fd5b63150b7a0260e01b7bffffffffffffffffffffffffffffffffffffffffffffffffffffffff1916817bffffffffffffffffffffffffffffffffffffffffffffffffffffffff191614915050611623565b600190505b949350505050565b600073ffffffffffffffffffffffffffffffffffffffff168273ffffffffffffffffffffffffffffffffffffffff16141561169b576040517f08c379a00000000000000000000000000000000000000000000000000000000081526004016116929061201e565b60405180910390fd5b6116a481610c12565b156116e4576040517f08c379a00000000000000000000000000000000000000000000000000000000081526004016116db90611f3e565b60405180910390fd5b6116f06000838361142f565b6001600360008473ffffffffffffffffffffffffffffffffffffffff1673ffffffffffffffffffffffffffffffffffffffff16815260200190815260200160002060008282546117409190612192565b92505081905550816002600083815260200190815260200160002060006101000a81548173ffffffffffffffffffffffffffffffffffffffff021916908373ffffffffffffffffffffffffffffffffffffffff160217905550808273ffffffffffffffffffffffffffffffffffffffff16600073ffffffffffffffffffffffffffffffffffffffff167fddf252ad1be2c89b69c2b068fc378daa952ba7f163c4a11628f55a4df523b3ef60405160405180910390a461180160008383611434565b5050565b6000808273ffffffffffffffffffffffffffffffffffffffff163b119050919050565b600061183b6118368461211e565b6120f9565b90508281526020810184848401111561185357600080fd5b61185e8482856122c1565b509392505050565b600081359050611875816128b6565b92915050565b60008151905061188a816128b6565b92915050565b60008135905061189f816128cd565b92915050565b6000813590506118b4816128e4565b92915050565b6000815190506118c9816128e4565b92915050565b600082601f8301126118e057600080fd5b81356118f0848260208601611828565b91505092915050565b600081359050611908816128fb565b92915050565b60006020828403121561192057600080fd5b600061192e84828501611866565b91505092915050565b60006020828403121561194957600080fd5b60006119578482850161187b565b91505092915050565b6000806040838503121561197357600080fd5b600061198185828601611866565b925050602061199285828601611866565b9150509250929050565b6000806000606084860312156119b157600080fd5b60006119bf86828701611866565b93505060206119d086828701611866565b92505060406119e1868287016118f9565b9150509250925092565b60008060008060808587031215611a0157600080fd5b6000611a0f87828801611866565b9450506020611a2087828801611866565b9350506040611a31878288016118f9565b925050606085013567ffffffffffffffff811115611a4e57600080fd5b611a5a878288016118cf565b91505092959194509250565b60008060408385031215611a7957600080fd5b6000611a8785828601611866565b9250506020611a9885828601611890565b9150509250929050565b60008060408385031215611ab557600080fd5b6000611ac385828601611866565b9250506020611ad4858286016118f9565b9150509250929050565b600060208284031215611af057600080fd5b6000611afe848285016118a5565b91505092915050565b600060208284031215611b1957600080fd5b6000611b27848285016118ba565b91505092915050565b600060208284031215611b4257600080fd5b6000611b50848285016118f9565b91505092915050565b611b628161224d565b82525050565b611b718161225f565b82525050565b6000611b828261214f565b611b8c8185612165565b9350611b9c8185602086016122d0565b611ba58161249c565b840191505092915050565b6000611bbb8261215a565b611bc58185612176565b9350611bd58185602086016122d0565b611bde8161249c565b840191505092915050565b6000611bf48261215a565b611bfe8185612187565b9350611c0e8185602086016122d0565b80840191505092915050565b6000611c27603283612176565b9150611c32826124ad565b604082019050919050565b6000611c4a602583612176565b9150611c55826124fc565b604082019050919050565b6000611c6d601c83612176565b9150611c788261254b565b602082019050919050565b6000611c90602483612176565b9150611c9b82612574565b604082019050919050565b6000611cb3601983612176565b9150611cbe826125c3565b602082019050919050565b6000611cd6602c83612176565b9150611ce1826125ec565b604082019050919050565b6000611cf9603883612176565b9150611d048261263b565b604082019050919050565b6000611d1c602a83612176565b9150611d278261268a565b604082019050919050565b6000611d3f602983612176565b9150611d4a826126d9565b604082019050919050565b6000611d62602083612176565b9150611d6d82612728565b602082019050919050565b6000611d85602c83612176565b9150611d9082612751565b604082019050919050565b6000611da8601283612176565b9150611db3826127a0565b602082019050919050565b6000611dcb602f83612176565b9150611dd6826127c9565b604082019050919050565b6000611dee602183612176565b9150611df982612818565b604082019050919050565b6000611e11603183612176565b9150611e1c82612867565b604082019050919050565b611e30816122b7565b82525050565b6000611e428285611be9565b9150611e4e8284611be9565b91508190509392505050565b6000602082019050611e6f6000830184611b59565b92915050565b6000608082019050611e8a6000830187611b59565b611e976020830186611b59565b611ea46040830185611e27565b8181036060830152611eb68184611b77565b905095945050505050565b6000602082019050611ed66000830184611b68565b92915050565b60006020820190508181036000830152611ef68184611bb0565b905092915050565b60006020820190508181036000830152611f1781611c1a565b9050919050565b60006020820190508181036000830152611f3781611c3d565b9050919050565b60006020820190508181036000830152611f5781611c60565b9050919050565b60006020820190508181036000830152611f7781611c83565b9050919050565b60006020820190508181036000830152611f9781611ca6565b9050919050565b60006020820190508181036000830152611fb781611cc9565b9050919050565b60006020820190508181036000830152611fd781611cec565b9050919050565b60006020820190508181036000830152611ff781611d0f565b9050919050565b6000602082019050818103600083015261201781611d32565b9050919050565b6000602082019050818103600083015261203781611d55565b9050919050565b6000602082019050818103600083015261205781611d78565b9050919050565b6000602082019050818103600083015261207781611d9b565b9050919050565b6000602082019050818103600083015261209781611dbe565b9050919050565b600060208201905081810360008301526120b781611de1565b9050919050565b600060208201905081810360008301526120d781611e04565b9050919050565b60006020820190506120f36000830184611e27565b92915050565b6000612103612114565b905061210f8282612335565b919050565b6000604051905090565b600067ffffffffffffffff8211156121395761213861246d565b5b6121428261249c565b9050602081019050919050565b600081519050919050565b600081519050919050565b600082825260208201905092915050565b600082825260208201905092915050565b600081905092915050565b600061219d826122b7565b91506121a8836122b7565b9250827fffffffffffffffffffffffffffffffffffffffffffffffffffffffffffffffff038211156121dd576121dc6123e0565b5b828201905092915050565b60006121f3826122b7565b91506121fe836122b7565b92508261220e5761220d61240f565b5b828204905092915050565b6000612224826122b7565b915061222f836122b7565b925082821015612242576122416123e0565b5b828203905092915050565b600061225882612297565b9050919050565b60008115159050919050565b60007fffffffff0000000000000000000000000000000000000000000000000000000082169050919050565b600073ffffffffffffffffffffffffffffffffffffffff82169050919050565b6000819050919050565b82818337600083830152505050565b60005b838110156122ee5780820151818401526020810190506122d3565b838111156122fd576000848401525b50505050565b6000600282049050600182168061231b57607f821691505b6020821081141561232f5761232e61243e565b5b50919050565b61233e8261249c565b810181811067ffffffffffffffff8211171561235d5761235c61246d565b5b80604052505050565b6000612371826122b7565b91507fffffffffffffffffffffffffffffffffffffffffffffffffffffffffffffffff8214156123a4576123a36123e0565b5b600182019050919050565b60006123ba826122b7565b91506123c5836122b7565b9250826123d5576123d461240f565b5b828206905092915050565b7f4e487b7100000000000000000000000000000000000000000000000000000000600052601160045260246000fd5b7f4e487b7100000000000000000000000000000000000000000000000000000000600052601260045260246000fd5b7f4e487b7100000000000000000000000000000000000000000000000000000000600052602260045260246000fd5b7f4e487b7100000000000000000000000000000000000000000000000000000000600052604160045260246000fd5b6000601f19601f8301169050919050565b7f4552433732313a207472616e7366657220746f206e6f6e20455243373231526560008201527f63656976657220696d706c656d656e7465720000000000000000000000000000602082015250565b7f4552433732313a207472616e736665722066726f6d20696e636f72726563742060008201527f6f776e6572000000000000000000000000000000000000000000000000000000602082015250565b7f4552433732313a20746f6b656e20616c7265616479206d696e74656400000000600082015250565b7f4552433732313a207472616e7366657220746f20746865207a65726f2061646460008201527f7265737300000000000000000000000000000000000000000000000000000000602082015250565b7f4552433732313a20617070726f766520746f2063616c6c657200000000000000600082015250565b7f4552433732313a206f70657261746f7220717565727920666f72206e6f6e657860008201527f697374656e7420746f6b656e0000000000000000000000000000000000000000602082015250565b7f4552433732313a20617070726f76652063616c6c6572206973206e6f74206f7760008201527f6e6572206e6f7220617070726f76656420666f7220616c6c0000000000000000602082015250565b7f4552433732313a2062616c616e636520717565727920666f7220746865207a6560008201527f726f206164647265737300000000000000000000000000000000000000000000602082015250565b7f4552433732313a206f776e657220717565727920666f72206e6f6e657869737460008201527f656e7420746f6b656e0000000000000000000000000000000000000000000000602082015250565b7f4552433732313a206d696e7420746f20746865207a65726f2061646472657373600082015250565b7f4552433732313a20617070726f76656420717565727920666f72206e6f6e657860008201527f697374656e7420746f6b656e0000000000000000000000000000000000000000602082015250565b7f4e6f207469656e6573207065726d69736f730000000000000000000000000000600082015250565b7f4552433732314d657461646174613a2055524920717565727920666f72206e6f60008201527f6e6578697374656e7420746f6b656e0000000000000000000000000000000000602082015250565b7f4552433732313a20617070726f76616c20746f2063757272656e74206f776e6560008201527f7200000000000000000000000000000000000000000000000000000000000000602082015250565b7f4552433732313a207472616e736665722063616c6c6572206973206e6f74206f60008201527f776e6572206e6f7220617070726f766564000000000000000000000000000000602082015250565b6128bf8161224d565b81146128ca57600080fd5b50565b6128d68161225f565b81146128e157600080fd5b50565b6128ed8161226b565b81146128f857600080fd5b50565b612904816122b7565b811461290f57600080fd5b5056fea2646970667358221220ff8fcc1c113f6d0e5806d7decf717e8a248a305b2464bb2d59f19d207872835364736f6c63430008040033",
  "immutableReferences": {},
  "source": "// SPDX-License-Identifier: MIT\npragma solidity ^0.8.4;\n\nimport \"@openzeppelin/contracts/token/ERC721/ERC721.sol\";\nimport \"@openzeppelin/contracts/token/ERC20/ERC20.sol\";\nimport \"@openzeppelin/contracts/utils/Counters.sol\";\nimport \"@openzeppelin/contracts/access/Ownable.sol\";\n\ncontract loteria is ERC20, Ownable {\n    \n    //Gestion de tokens\n\n    //Direccion del contrato NFT del proyecto\n    address public nft;\n    //constructor\n    constructor() ERC20(\"Loteria\",\"GRL\") {\n        _mint(address(this),1000);\n        nft = address(new mainERC721());\n    }\n\n    address public ganador;\n\n    //registro de usuario\n    mapping(address=>address) public usuario_contract;\n\n    function precioTokens(uint256 _numTokens) internal pure returns (uint256){\n        return _numTokens * (1 ether);\n    }\n\n    function balance_tokens(address _direccion) public view returns(uint256){\n        return balanceOf(_direccion);\n    }\n\n    function balance_contract() public view returns(uint256){\n        return balanceOf(address(this));\n    }\n\n    function verEthersSM() public view returns(uint256){\n        return address(this).balance / 10**18;\n    }\n\n    function mintERC20(uint256 _cantidad) public onlyOwner{\n        _mint(address(this), _cantidad);\n    }\n\n    //registro de usuarios \n    function registrar() internal {\n        address addr_personal = address(new boletosNFT(msg.sender,address(this),nft));\n        usuario_contract[msg.sender] = addr_personal;\n    }\n\n    //informacion de un usuario\n    function usersInfo(address _account) public view returns(address){\n        return usuario_contract[_account];\n    }\n\n    //comprar tokens ERC20\n    function compraTokens(uint256 _numTokens) public payable{\n        //registro de usuario\n        if(usuario_contract[msg.sender]==address(0)){\n            registrar();\n        }\n        //establecer el coste de los tokens a comprar\n        uint256 coste = precioTokens(_numTokens);\n        require(msg.value >= coste, \"Compra mas ethers\");\n        //numero de tokens disponibles\n        uint256 balanceSM = balance_contract();\n        require(balanceSM >= _numTokens, \"No hay tantos tokens disponibles, compra menos\");\n        //devolucion dinero sobrante\n        uint256 returnValue = msg.value - coste;\n        //pago\n        payable(msg.sender).transfer(returnValue);\n        //envio de tokens erc20\n        _transfer(address(this),msg.sender,_numTokens);\n    }\n\n    function devolverTokens(uint256 _numTokens) public payable{\n        //Numero de tokens mayor que 0\n        require(_numTokens>0,\"El numero a devolver tiene que ser mayor que 0\");\n        //el usuario tiene que tener los tokens a devolver\n        require(_numTokens <= balance_tokens(msg.sender),\"No tienes tantos tokens\");\n        //transferir tokens al SM\n        _transfer(msg.sender,address(this),_numTokens);\n        //SM envia ethers\n        payable(msg.sender).transfer(precioTokens(_numTokens));\n    }\n\n    //gestion de loteria\n\n    //precio boleto ERC20\n    uint public precioBoleto = 5;\n    //relacion persona-boleto\n    mapping(address => uint[]) idPersona_boletos;\n    //relacion boleto -> ganador\n    mapping(uint => address) adnBoleto;\n    //Numero aleatorio\n    uint rand = 0;\n    //Boletos de la loteria generados\n    uint [] boletosLoteria;\n\n    function compraBoletos(uint256 _numBoletos) public {\n        //precio total de los boletos\n        uint precioTotal = _numBoletos*precioBoleto;\n        //comprobar si el usuario tiene tokens suficientes\n        require(precioTotal <= balance_tokens(msg.sender),\"No tienes suficientes tokens\");\n        //transfer de tokens usuario -> SM\n        _transfer(msg.sender,address(this),precioTotal);\n        for(uint i=0;i<_numBoletos;i++){\n            uint random = uint(keccak256(abi.encodePacked(block.timestamp,msg.sender,rand)))%10000;\n            rand++;\n            boletosLoteria.push(random);\n            idPersona_boletos[msg.sender].push(random);\n            adnBoleto[random] = msg.sender;\n            boletosNFT(usuario_contract[msg.sender]).mintBoleto(msg.sender,random);\n        }\n    }\n\n    function tusBoletos(address _propietario) public view returns(uint [] memory){\n        return idPersona_boletos[_propietario];\n    }\n\n    function generarGanador() public onlyOwner returns(address){\n        //longitud array\n        uint256 longitud = boletosLoteria.length;\n        //Verificacion compra 1 boleto\n        require(longitud > 0,\"No hay boletos comprados\");\n        //eleccion random entre 0 y la longitud\n        uint random = uint(keccak256(abi.encodePacked(block.timestamp)))%longitud;\n        //seleccion num random\n        uint eleccion = boletosLoteria[random];\n        //eleccion ganador \n        ganador = adnBoleto[eleccion];\n        //envio 95% del bote\n        payable(ganador).transfer(address(this).balance*95/100);\n        //envio del 5% al owner\n        payable(msg.sender).transfer(address(this).balance*5/100);\n        return ganador;\n    }\n}\n\ncontract mainERC721 is ERC721 {\n    address public direccionLoteria;\n    constructor() ERC721(\"Loteria\",\"TCK\"){\n        direccionLoteria = msg.sender;\n    }\n\n    //creacion de nft\n    function safeMint(address _propietario, uint256 _boleto) public {\n        require(msg.sender == loteria(direccionLoteria).usersInfo(_propietario),\"No tienes permisos\");\n        _safeMint(_propietario, _boleto);\n    }\n\n\n}\n\ncontract boletosNFT {\n    //datos del propietario\n    struct Owner {\n        address direccionPropietario;\n        address contratoPadre;\n        address contratoNFT;\n        address contratoUsuario;\n    }\n\n    Owner public propietario;\n\n    //constructor sm hijo\n    constructor(address _propietario,address _contratoPadre,address _contratoNFT){\n        propietario = Owner(_propietario,_contratoPadre,_contratoNFT, address(this));\n    }\n\n    //conversion boletos loteria\n    function mintBoleto(address _propietario, uint _boleto) public {\n        mainERC721(propietario.contratoNFT).safeMint(_propietario,_boleto);\n    }\n}",
  "sourcePath": "/Users/alvaro/Desktop/programacion/Web3/Github/LoteriaDapp/src/contracts/loteria.sol",
  "compiler": {
    "name": "solc",
    "version": "0.8.4+commit.c7e474f2.Emscripten.clang"
  },
  "schemaVersion": "3.4.6",
  "updatedAt": "2022-12-12T10:11:03.481Z",
  "networkType": "ethereum",
  "devdoc": {
    "kind": "dev",
    "methods": {
      "allowance(address,address)": {
        "details": "See {IERC20-allowance}."
      },
      "approve(address,uint256)": {
        "details": "See {IERC20-approve}. NOTE: If `amount` is the maximum `uint256`, the allowance is not updated on `transferFrom`. This is semantically equivalent to an infinite approval. Requirements: - `spender` cannot be the zero address."
      },
      "balanceOf(address)": {
        "details": "See {IERC20-balanceOf}."
      },
      "decimals()": {
        "details": "Returns the number of decimals used to get its user representation. For example, if `decimals` equals `2`, a balance of `505` tokens should be displayed to a user as `5.05` (`505 / 10 ** 2`). Tokens usually opt for a value of 18, imitating the relationship between Ether and Wei. This is the value {ERC20} uses, unless this function is overridden; NOTE: This information is only used for _display_ purposes: it in no way affects any of the arithmetic of the contract, including {IERC20-balanceOf} and {IERC20-transfer}."
      },
      "decreaseAllowance(address,uint256)": {
        "details": "Atomically decreases the allowance granted to `spender` by the caller. This is an alternative to {approve} that can be used as a mitigation for problems described in {IERC20-approve}. Emits an {Approval} event indicating the updated allowance. Requirements: - `spender` cannot be the zero address. - `spender` must have allowance for the caller of at least `subtractedValue`."
      },
      "increaseAllowance(address,uint256)": {
        "details": "Atomically increases the allowance granted to `spender` by the caller. This is an alternative to {approve} that can be used as a mitigation for problems described in {IERC20-approve}. Emits an {Approval} event indicating the updated allowance. Requirements: - `spender` cannot be the zero address."
      },
      "name()": {
        "details": "Returns the name of the token."
      },
      "owner()": {
        "details": "Returns the address of the current owner."
      },
      "renounceOwnership()": {
        "details": "Leaves the contract without owner. It will not be possible to call `onlyOwner` functions anymore. Can only be called by the current owner. NOTE: Renouncing ownership will leave the contract without an owner, thereby removing any functionality that is only available to the owner."
      },
      "symbol()": {
        "details": "Returns the symbol of the token, usually a shorter version of the name."
      },
      "totalSupply()": {
        "details": "See {IERC20-totalSupply}."
      },
      "transfer(address,uint256)": {
        "details": "See {IERC20-transfer}. Requirements: - `to` cannot be the zero address. - the caller must have a balance of at least `amount`."
      },
      "transferFrom(address,address,uint256)": {
        "details": "See {IERC20-transferFrom}. Emits an {Approval} event indicating the updated allowance. This is not required by the EIP. See the note at the beginning of {ERC20}. NOTE: Does not update the allowance if the current allowance is the maximum `uint256`. Requirements: - `from` and `to` cannot be the zero address. - `from` must have a balance of at least `amount`. - the caller must have allowance for ``from``'s tokens of at least `amount`."
      },
      "transferOwnership(address)": {
        "details": "Transfers ownership of the contract to a new account (`newOwner`). Can only be called by the current owner."
      }
    },
    "version": 1
  },
  "userdoc": {
    "kind": "user",
    "methods": {},
    "version": 1
  }
}